{
  "contractName": "Blog",
  "abi": [
    {
      "inputs": [
        {
          "internalType": "string",
          "name": "hashedBody",
          "type": "string"
        },
        {
          "internalType": "bytes32",
          "name": "uuid",
          "type": "bytes32"
        }
      ],
      "name": "addBlogHash",
      "outputs": [
        {
          "internalType": "bool",
          "name": "",
          "type": "bool"
        }
      ],
      "stateMutability": "nonpayable",
      "type": "function"
    },
    {
      "inputs": [
        {
          "internalType": "bytes32",
          "name": "id",
          "type": "bytes32"
        }
      ],
      "name": "getHash",
      "outputs": [
        {
          "internalType": "string",
          "name": "",
          "type": "string"
        }
      ],
      "stateMutability": "view",
      "type": "function",
      "constant": true
    },
    {
      "inputs": [
        {
          "internalType": "address",
          "name": "publicKey",
          "type": "address"
        }
      ],
      "name": "getContentArray",
      "outputs": [
        {
          "internalType": "bytes32[]",
          "name": "",
          "type": "bytes32[]"
        }
      ],
      "stateMutability": "view",
      "type": "function",
      "constant": true
    }
  ],
  "bytecode": "0x608060405234801561001057600080fd5b5061075c806100206000396000f3fe608060405234801561001057600080fd5b50600436106100415760003560e01c80630589976b146100465780633cf5040a146100765780637ee427fa146100a6575b600080fd5b610060600480360381019061005b91906103dd565b6100d6565b60405161006d9190610550565b60405180910390f35b610090600480360381019061008b9190610406565b61016d565b60405161009d919061058d565b60405180910390f35b6100c060048036038101906100bb919061042f565b610221565b6040516100cd9190610572565b60405180910390f35b6060600160008373ffffffffffffffffffffffffffffffffffffffff1673ffffffffffffffffffffffffffffffffffffffff16815260200190815260200160002080548060200260200160405190810160405280929190818152602001828054801561016157602002820191906000526020600020905b81548152602001906001019080831161014d575b50505050509050919050565b60606000808381526020019081526020016000208054600181600116156101000203166002900480601f0160208091040260200160405190810160405280929190818152602001828054600181600116156101000203166002900480156102155780601f106101ea57610100808354040283529160200191610215565b820191906000526020600020905b8154815290600101906020018083116101f857829003601f168201915b50505050509050919050565b6000600160003373ffffffffffffffffffffffffffffffffffffffff1673ffffffffffffffffffffffffffffffffffffffff1681526020019081526020016000208290806001815401808255809150506001900390600052602060002001600090919091909150558260008084815260200190815260200160002090805190602001906102af9291906102ba565b506001905092915050565b828054600181600116156101000203166002900490600052602060002090601f016020900481019282601f106102fb57805160ff1916838001178555610329565b82800160010185558215610329579182015b8281111561032857825182559160200191906001019061030d565b5b509050610336919061033a565b5090565b61035c91905b80821115610358576000816000905550600101610340565b5090565b90565b60008135905061036e816106f8565b92915050565b6000813590506103838161070f565b92915050565b600082601f83011261039a57600080fd5b81356103ad6103a8826105dc565b6105af565b915080825260208301602083018583830111156103c957600080fd5b6103d48382846106a5565b50505092915050565b6000602082840312156103ef57600080fd5b60006103fd8482850161035f565b91505092915050565b60006020828403121561041857600080fd5b600061042684828501610374565b91505092915050565b6000806040838503121561044257600080fd5b600083013567ffffffffffffffff81111561045c57600080fd5b61046885828601610389565b925050602061047985828601610374565b9150509250929050565b600061048f8383610508565b60208301905092915050565b60006104a682610618565b6104b0818561063b565b93506104bb83610608565b8060005b838110156104ec5781516104d38882610483565b97506104de8361062e565b9250506001810190506104bf565b5085935050505092915050565b6105028161066f565b82525050565b6105118161067b565b82525050565b600061052282610623565b61052c818561064c565b935061053c8185602086016106b4565b610545816106e7565b840191505092915050565b6000602082019050818103600083015261056a818461049b565b905092915050565b600060208201905061058760008301846104f9565b92915050565b600060208201905081810360008301526105a78184610517565b905092915050565b6000604051905081810181811067ffffffffffffffff821117156105d257600080fd5b8060405250919050565b600067ffffffffffffffff8211156105f357600080fd5b601f19601f8301169050602081019050919050565b6000819050602082019050919050565b600081519050919050565b600081519050919050565b6000602082019050919050565b600082825260208201905092915050565b600082825260208201905092915050565b600061066882610685565b9050919050565b60008115159050919050565b6000819050919050565b600073ffffffffffffffffffffffffffffffffffffffff82169050919050565b82818337600083830152505050565b60005b838110156106d25780820151818401526020810190506106b7565b838111156106e1576000848401525b50505050565b6000601f19601f8301169050919050565b6107018161065d565b811461070c57600080fd5b50565b6107188161067b565b811461072357600080fd5b5056fea26469706673582212209b95cfbb118f1f3612f123b8ca9ce4fc611825f90fbe3ebeb31e573f7ed2ce0e64736f6c63430006060033",
  "immutableReferences": {},
  "source": "// SPDX-License-Identifier: MIT\npragma solidity >=0.4.21 <0.7.0;\npragma experimental ABIEncoderV2;\n\ncontract Blog {\n\n    mapping(bytes32 => string) private hashedContent;\n    mapping(address => bytes32[]) private userContents;\n\n    function addBlogHash(string memory hashedBody, bytes32 uuid) public returns(bool) {\n        userContents[msg.sender].push(uuid);\n        hashedContent[uuid] = hashedBody;\n        return true;\n    }\n\n    function getHash(bytes32 id) public view returns(string memory) {\n        return hashedContent[id];\n    }\n\n    function getContentArray(address publicKey) public view returns(bytes32[] memory) {\n        return userContents[publicKey];\n    }\n\n}",
  "sourcePath": "/Users/raahulvignesh/Desktop/EthereumIndiaFellowship/ETH_project/contracts/Blog.sol",
  "compiler": {
    "name": "solc",
    "version": "0.6.6+commit.6c089d02.Emscripten.clang"
  },
  "schemaVersion": "3.2.0",
  "updatedAt": "2020-07-04T09:42:08.523Z",
  "networkType": "ethereum",
  "devdoc": {
    "methods": {}
  },
  "userdoc": {
    "methods": {}
  }
}