{
  "contractName": "Master",
  "abi": [
    {
      "anonymous": false,
      "inputs": [
        {
          "indexed": true,
          "internalType": "address",
          "name": "owner",
          "type": "address"
        },
        {
          "indexed": true,
          "internalType": "address",
          "name": "approved",
          "type": "address"
        },
        {
          "indexed": true,
          "internalType": "uint256",
          "name": "tokenId",
          "type": "uint256"
        }
      ],
      "name": "Approval",
      "type": "event"
    },
    {
      "anonymous": false,
      "inputs": [
        {
          "indexed": true,
          "internalType": "address",
          "name": "owner",
          "type": "address"
        },
        {
          "indexed": true,
          "internalType": "address",
          "name": "operator",
          "type": "address"
        },
        {
          "indexed": false,
          "internalType": "bool",
          "name": "approved",
          "type": "bool"
        }
      ],
      "name": "ApprovalForAll",
      "type": "event"
    },
    {
      "anonymous": false,
      "inputs": [
        {
          "indexed": false,
          "internalType": "uint256",
          "name": "profit",
          "type": "uint256"
        }
      ],
      "name": "Log",
      "type": "event"
    },
    {
      "anonymous": false,
      "inputs": [
        {
          "indexed": true,
          "internalType": "address",
          "name": "from",
          "type": "address"
        },
        {
          "indexed": true,
          "internalType": "address",
          "name": "to",
          "type": "address"
        },
        {
          "indexed": true,
          "internalType": "uint256",
          "name": "tokenId",
          "type": "uint256"
        }
      ],
      "name": "Transfer",
      "type": "event"
    },
    {
      "anonymous": false,
      "inputs": [
        {
          "indexed": false,
          "internalType": "address",
          "name": "publicKey",
          "type": "address"
        },
        {
          "indexed": false,
          "internalType": "uint256",
          "name": "rand",
          "type": "uint256"
        },
        {
          "indexed": false,
          "internalType": "uint256",
          "name": "redeemTime",
          "type": "uint256"
        }
      ],
      "name": "newUser",
      "type": "event"
    },
    {
      "inputs": [
        {
          "internalType": "address",
          "name": "to",
          "type": "address"
        },
        {
          "internalType": "uint256",
          "name": "tokenId",
          "type": "uint256"
        }
      ],
      "name": "approve",
      "outputs": [],
      "stateMutability": "nonpayable",
      "type": "function"
    },
    {
      "inputs": [
        {
          "internalType": "address",
          "name": "owner",
          "type": "address"
        }
      ],
      "name": "balanceOf",
      "outputs": [
        {
          "internalType": "uint256",
          "name": "",
          "type": "uint256"
        }
      ],
      "stateMutability": "view",
      "type": "function",
      "constant": true
    },
    {
      "inputs": [],
      "name": "baseURI",
      "outputs": [
        {
          "internalType": "string",
          "name": "",
          "type": "string"
        }
      ],
      "stateMutability": "view",
      "type": "function",
      "constant": true
    },
    {
      "inputs": [
        {
          "internalType": "uint256",
          "name": "tokenId",
          "type": "uint256"
        }
      ],
      "name": "getApproved",
      "outputs": [
        {
          "internalType": "address",
          "name": "",
          "type": "address"
        }
      ],
      "stateMutability": "view",
      "type": "function",
      "constant": true
    },
    {
      "inputs": [
        {
          "internalType": "address",
          "name": "owner",
          "type": "address"
        },
        {
          "internalType": "address",
          "name": "operator",
          "type": "address"
        }
      ],
      "name": "isApprovedForAll",
      "outputs": [
        {
          "internalType": "bool",
          "name": "",
          "type": "bool"
        }
      ],
      "stateMutability": "view",
      "type": "function",
      "constant": true
    },
    {
      "inputs": [],
      "name": "name",
      "outputs": [
        {
          "internalType": "string",
          "name": "",
          "type": "string"
        }
      ],
      "stateMutability": "view",
      "type": "function",
      "constant": true
    },
    {
      "inputs": [],
      "name": "owner",
      "outputs": [
        {
          "internalType": "address",
          "name": "",
          "type": "address"
        }
      ],
      "stateMutability": "view",
      "type": "function",
      "constant": true
    },
    {
      "inputs": [
        {
          "internalType": "uint256",
          "name": "tokenId",
          "type": "uint256"
        }
      ],
      "name": "ownerOf",
      "outputs": [
        {
          "internalType": "address",
          "name": "",
          "type": "address"
        }
      ],
      "stateMutability": "view",
      "type": "function",
      "constant": true
    },
    {
      "inputs": [
        {
          "internalType": "address",
          "name": "from",
          "type": "address"
        },
        {
          "internalType": "address",
          "name": "to",
          "type": "address"
        },
        {
          "internalType": "uint256",
          "name": "tokenId",
          "type": "uint256"
        }
      ],
      "name": "safeTransferFrom",
      "outputs": [],
      "stateMutability": "nonpayable",
      "type": "function"
    },
    {
      "inputs": [
        {
          "internalType": "address",
          "name": "from",
          "type": "address"
        },
        {
          "internalType": "address",
          "name": "to",
          "type": "address"
        },
        {
          "internalType": "uint256",
          "name": "tokenId",
          "type": "uint256"
        },
        {
          "internalType": "bytes",
          "name": "_data",
          "type": "bytes"
        }
      ],
      "name": "safeTransferFrom",
      "outputs": [],
      "stateMutability": "nonpayable",
      "type": "function"
    },
    {
      "inputs": [
        {
          "internalType": "address",
          "name": "operator",
          "type": "address"
        },
        {
          "internalType": "bool",
          "name": "approved",
          "type": "bool"
        }
      ],
      "name": "setApprovalForAll",
      "outputs": [],
      "stateMutability": "nonpayable",
      "type": "function"
    },
    {
      "inputs": [
        {
          "internalType": "bytes4",
          "name": "interfaceId",
          "type": "bytes4"
        }
      ],
      "name": "supportsInterface",
      "outputs": [
        {
          "internalType": "bool",
          "name": "",
          "type": "bool"
        }
      ],
      "stateMutability": "view",
      "type": "function",
      "constant": true
    },
    {
      "inputs": [],
      "name": "symbol",
      "outputs": [
        {
          "internalType": "string",
          "name": "",
          "type": "string"
        }
      ],
      "stateMutability": "view",
      "type": "function",
      "constant": true
    },
    {
      "inputs": [
        {
          "internalType": "uint256",
          "name": "index",
          "type": "uint256"
        }
      ],
      "name": "tokenByIndex",
      "outputs": [
        {
          "internalType": "uint256",
          "name": "",
          "type": "uint256"
        }
      ],
      "stateMutability": "view",
      "type": "function",
      "constant": true
    },
    {
      "inputs": [
        {
          "internalType": "address",
          "name": "owner",
          "type": "address"
        },
        {
          "internalType": "uint256",
          "name": "index",
          "type": "uint256"
        }
      ],
      "name": "tokenOfOwnerByIndex",
      "outputs": [
        {
          "internalType": "uint256",
          "name": "",
          "type": "uint256"
        }
      ],
      "stateMutability": "view",
      "type": "function",
      "constant": true
    },
    {
      "inputs": [
        {
          "internalType": "uint256",
          "name": "tokenId",
          "type": "uint256"
        }
      ],
      "name": "tokenURI",
      "outputs": [
        {
          "internalType": "string",
          "name": "",
          "type": "string"
        }
      ],
      "stateMutability": "view",
      "type": "function",
      "constant": true
    },
    {
      "inputs": [],
      "name": "totalSupply",
      "outputs": [
        {
          "internalType": "uint256",
          "name": "",
          "type": "uint256"
        }
      ],
      "stateMutability": "view",
      "type": "function",
      "constant": true
    },
    {
      "inputs": [
        {
          "internalType": "address",
          "name": "from",
          "type": "address"
        },
        {
          "internalType": "address",
          "name": "to",
          "type": "address"
        },
        {
          "internalType": "uint256",
          "name": "tokenId",
          "type": "uint256"
        }
      ],
      "name": "transferFrom",
      "outputs": [],
      "stateMutability": "nonpayable",
      "type": "function"
    },
    {
      "inputs": [
        {
          "internalType": "bytes32",
          "name": "hash",
          "type": "bytes32"
        },
        {
          "internalType": "uint8",
          "name": "v",
          "type": "uint8"
        },
        {
          "internalType": "bytes32",
          "name": "r",
          "type": "bytes32"
        },
        {
          "internalType": "bytes32",
          "name": "s",
          "type": "bytes32"
        }
      ],
      "name": "authenticate",
      "outputs": [
        {
          "internalType": "bool",
          "name": "",
          "type": "bool"
        }
      ],
      "stateMutability": "view",
      "type": "function",
      "constant": true
    },
    {
      "inputs": [],
      "name": "createUser",
      "outputs": [
        {
          "internalType": "bool",
          "name": "",
          "type": "bool"
        }
      ],
      "stateMutability": "nonpayable",
      "type": "function"
    },
    {
      "inputs": [
        {
          "internalType": "uint256",
          "name": "tokenId",
          "type": "uint256"
        }
      ],
      "name": "addSubscription",
      "outputs": [
        {
          "internalType": "bool",
          "name": "",
          "type": "bool"
        }
      ],
      "stateMutability": "nonpayable",
      "type": "function"
    },
    {
      "inputs": [
        {
          "internalType": "address",
          "name": "publicKey",
          "type": "address"
        }
      ],
      "name": "checkValidUser",
      "outputs": [
        {
          "internalType": "bool",
          "name": "",
          "type": "bool"
        }
      ],
      "stateMutability": "view",
      "type": "function",
      "constant": true
    },
    {
      "inputs": [],
      "name": "getRandom",
      "outputs": [
        {
          "internalType": "uint256",
          "name": "",
          "type": "uint256"
        }
      ],
      "stateMutability": "view",
      "type": "function",
      "constant": true
    },
    {
      "inputs": [],
      "name": "getRedeemTime",
      "outputs": [
        {
          "internalType": "uint256",
          "name": "",
          "type": "uint256"
        }
      ],
      "stateMutability": "view",
      "type": "function",
      "constant": true
    },
    {
      "inputs": [],
      "name": "redeemSubscription",
      "outputs": [
        {
          "internalType": "bool",
          "name": "",
          "type": "bool"
        }
      ],
      "stateMutability": "nonpayable",
      "type": "function"
    },
    {
      "inputs": [
        {
          "internalType": "uint256",
          "name": "_tokens",
          "type": "uint256"
        }
      ],
      "name": "transferOwnerFunds",
      "outputs": [
        {
          "internalType": "bool",
          "name": "",
          "type": "bool"
        }
      ],
      "stateMutability": "nonpayable",
      "type": "function"
    },
    {
      "inputs": [],
      "name": "getOwnerShare",
      "outputs": [
        {
          "internalType": "uint256",
          "name": "",
          "type": "uint256"
        }
      ],
      "stateMutability": "nonpayable",
      "type": "function"
    }
  ],
  "bytecode": "0x6080604052734f96fe3b7a6cf9725f59d353f723c1bdb64ca6aa600c60006101000a81548173ffffffffffffffffffffffffffffffffffffffff021916908373ffffffffffffffffffffffffffffffffffffffff16021790555073f0d0eb522cfa50b716b3b1604c4f0fa6f04376ad600d60006101000a81548173ffffffffffffffffffffffffffffffffffffffff021916908373ffffffffffffffffffffffffffffffffffffffff1602179055506040518060400160405280600481526020017f42686970000000000000000000000000000000000000000000000000000000008152506040518060400160405280600281526020017f4270000000000000000000000000000000000000000000000000000000000000815250620001326301ffc9a760e01b620002bb60201b60201c565b81600690805190602001906200014a929190620003c4565b50806007908051906020019062000163929190620003c4565b506200017c6380ac58cd60e01b620002bb60201b60201c565b62000194635b5e139f60e01b620002bb60201b60201c565b620001ac63780e9d6360e01b620002bb60201b60201c565b505033600e60006101000a81548173ffffffffffffffffffffffffffffffffffffffff021916908373ffffffffffffffffffffffffffffffffffffffff160217905550600c60009054906101000a900473ffffffffffffffffffffffffffffffffffffffff16600a60006101000a81548173ffffffffffffffffffffffffffffffffffffffff021916908373ffffffffffffffffffffffffffffffffffffffff160217905550600d60009054906101000a900473ffffffffffffffffffffffffffffffffffffffff16600b60006101000a81548173ffffffffffffffffffffffffffffffffffffffff021916908373ffffffffffffffffffffffffffffffffffffffff16021790555062000473565b63ffffffff60e01b817bffffffffffffffffffffffffffffffffffffffffffffffffffffffff1916141562000358576040517f08c379a000000000000000000000000000000000000000000000000000000000815260040180806020018281038252601c8152602001807f4552433136353a20696e76616c696420696e746572666163652069640000000081525060200191505060405180910390fd5b6001600080837bffffffffffffffffffffffffffffffffffffffffffffffffffffffff19167bffffffffffffffffffffffffffffffffffffffffffffffffffffffff1916815260200190815260200160002060006101000a81548160ff02191690831515021790555050565b828054600181600116156101000203166002900490600052602060002090601f016020900481019282601f106200040757805160ff191683800117855562000438565b8280016001018555821562000438579182015b82811115620004375782518255916020019190600101906200041a565b5b5090506200044791906200044b565b5090565b6200047091905b808211156200046c57600081600090555060010162000452565b5090565b90565b6145b980620004836000396000f3fe608060405234801561001057600080fd5b50600436106101a95760003560e01c80635fda130b116100f9578063a22cb46511610097578063c87b56dd11610071578063c87b56dd146109e4578063ce5ed53114610a8b578063dabe319d14610aa9578063e985e9c514610aef576101a9565b8063a22cb46514610871578063aacc5a17146108c1578063b88d4fde146108df576101a9565b806370a08231116100d357806370a08231146106f057806372498e39146107485780638da5cb5b146107a457806395d89b41146107ee576101a9565b80635fda130b146105b95780636352211e146105ff5780636c0360eb1461066d576101a9565b806318160ddd116101665780632f745c59116101405780632f745c591461044057806342842e0e146104a25780634d7ae2bf146105105780634f6ccce714610577576101a9565b806318160ddd1461039257806323b872dd146103b057806325ad91ce1461041e576101a9565b806301656660146101ae578063019ddb8d146101d057806301ffc9a7146101ee57806306fdde0314610253578063081812fc146102d6578063095ea7b314610344575b600080fd5b6101b6610b6b565b604051808215151515815260200191505060405180910390f35b6101d8610db5565b6040518082815260200191505060405180910390f35b6102396004803603602081101561020457600080fd5b8101908080357bffffffffffffffffffffffffffffffffffffffffffffffffffffffff19169060200190929190505050610de1565b604051808215151515815260200191505060405180910390f35b61025b610e48565b6040518080602001828103825283818151815260200191508051906020019080838360005b8381101561029b578082015181840152602081019050610280565b50505050905090810190601f1680156102c85780820380516001836020036101000a031916815260200191505b509250505060405180910390f35b610302600480360360208110156102ec57600080fd5b8101908080359060200190929190505050610eea565b604051808273ffffffffffffffffffffffffffffffffffffffff1673ffffffffffffffffffffffffffffffffffffffff16815260200191505060405180910390f35b6103906004803603604081101561035a57600080fd5b81019080803573ffffffffffffffffffffffffffffffffffffffff16906020019092919080359060200190929190505050610f85565b005b61039a6110c9565b6040518082815260200191505060405180910390f35b61041c600480360360608110156103c657600080fd5b81019080803573ffffffffffffffffffffffffffffffffffffffff169060200190929190803573ffffffffffffffffffffffffffffffffffffffff169060200190929190803590602001909291905050506110da565b005b610426611150565b604051808215151515815260200191505060405180910390f35b61048c6004803603604081101561045657600080fd5b81019080803573ffffffffffffffffffffffffffffffffffffffff169060200190929190803590602001909291905050506112f1565b6040518082815260200191505060405180910390f35b61050e600480360360608110156104b857600080fd5b81019080803573ffffffffffffffffffffffffffffffffffffffff169060200190929190803573ffffffffffffffffffffffffffffffffffffffff1690602001909291908035906020019092919050505061134c565b005b61055d6004803603608081101561052657600080fd5b8101908080359060200190929190803560ff169060200190929190803590602001909291908035906020019092919050505061136c565b604051808215151515815260200191505060405180910390f35b6105a36004803603602081101561058d57600080fd5b81019080803590602001909291905050506113b4565b6040518082815260200191505060405180910390f35b6105e5600480360360208110156105cf57600080fd5b81019080803590602001909291905050506113d7565b604051808215151515815260200191505060405180910390f35b61062b6004803603602081101561061557600080fd5b81019080803590602001909291905050506115df565b604051808273ffffffffffffffffffffffffffffffffffffffff1673ffffffffffffffffffffffffffffffffffffffff16815260200191505060405180910390f35b610675611616565b6040518080602001828103825283818151815260200191508051906020019080838360005b838110156106b557808201518184015260208101905061069a565b50505050905090810190601f1680156106e25780820380516001836020036101000a031916815260200191505b509250505060405180910390f35b6107326004803603602081101561070657600080fd5b81019080803573ffffffffffffffffffffffffffffffffffffffff1690602001909291905050506116b8565b6040518082815260200191505060405180910390f35b61078a6004803603602081101561075e57600080fd5b81019080803573ffffffffffffffffffffffffffffffffffffffff16906020019092919050505061178d565b604051808215151515815260200191505060405180910390f35b6107ac6117f7565b604051808273ffffffffffffffffffffffffffffffffffffffff1673ffffffffffffffffffffffffffffffffffffffff16815260200191505060405180910390f35b6107f661181d565b6040518080602001828103825283818151815260200191508051906020019080838360005b8381101561083657808201518184015260208101905061081b565b50505050905090810190601f1680156108635780820380516001836020036101000a031916815260200191505b509250505060405180910390f35b6108bf6004803603604081101561088757600080fd5b81019080803573ffffffffffffffffffffffffffffffffffffffff1690602001909291908035151590602001909291905050506118bf565b005b6108c9611a77565b6040518082815260200191505060405180910390f35b6109e2600480360360808110156108f557600080fd5b81019080803573ffffffffffffffffffffffffffffffffffffffff169060200190929190803573ffffffffffffffffffffffffffffffffffffffff169060200190929190803590602001909291908035906020019064010000000081111561095c57600080fd5b82018360208201111561096e57600080fd5b8035906020019184600183028401116401000000008311171561099057600080fd5b91908080601f016020809104026020016040519081016040528093929190818152602001838380828437600081840152601f19601f820116905080830192505050505050509192919290505050611b3c565b005b610a10600480360360208110156109fa57600080fd5b8101908080359060200190929190505050611bb4565b6040518080602001828103825283818151815260200191508051906020019080838360005b83811015610a50578082015181840152602081019050610a35565b50505050905090810190601f168015610a7d5780820380516001836020036101000a031916815260200191505b509250505060405180910390f35b610a93611e9d565b6040518082815260200191505060405180910390f35b610ad560048036036020811015610abf57600080fd5b8101908080359060200190929190505050611f62565b604051808215151515815260200191505060405180910390f35b610b5160048036036040811015610b0557600080fd5b81019080803573ffffffffffffffffffffffffffffffffffffffff169060200190929190803573ffffffffffffffffffffffffffffffffffffffff169060200190929190505050611f91565b604051808215151515815260200191505060405180910390f35b6000610b763361178d565b610be8576040517f08c379a00000000000000000000000000000000000000000000000000000000081526004018080602001828103825260108152602001807f4e6f7420612076616c696420757365720000000000000000000000000000000081525060200191505060405180910390fd5b60003390506000610bf8826116b8565b11610c6b576040517f08c379a000000000000000000000000000000000000000000000000000000000815260040180806020018281038252601a8152602001807f737562736372697074696f6e20646f65736e6f7420657869737400000000000081525060200191505060405180910390fd5b600f60003373ffffffffffffffffffffffffffffffffffffffff1673ffffffffffffffffffffffffffffffffffffffff168152602001908152602001600020600201544211610d22576040517f08c379a00000000000000000000000000000000000000000000000000000000081526004018080602001828103825260178152602001807f52656465656d2074696d65206e6f74207265616368656400000000000000000081525060200191505060405180910390fd5b6000610d39826001610d33856116b8565b036112f1565b90506000610d4682612025565b90508015610dab57610d5661209f565b506000600f60008573ffffffffffffffffffffffffffffffffffffffff1673ffffffffffffffffffffffffffffffffffffffff1681526020019081526020016000206002018190555060019350505050610db2565b8093505050505b90565b600080678ac7230489e80000610dc96110c9565b0290506000610dd7826122ae565b9050809250505090565b6000806000837bffffffffffffffffffffffffffffffffffffffffffffffffffffffff19167bffffffffffffffffffffffffffffffffffffffffffffffffffffffff1916815260200190815260200160002060009054906101000a900460ff169050919050565b606060068054600181600116156101000203166002900480601f016020809104026020016040519081016040528092919081815260200182805460018160011615610100020316600290048015610ee05780601f10610eb557610100808354040283529160200191610ee0565b820191906000526020600020905b815481529060010190602001808311610ec357829003601f168201915b5050505050905090565b6000610ef58261247e565b610f4a576040517f08c379a000000000000000000000000000000000000000000000000000000000815260040180806020018281038252602c815260200180614435602c913960400191505060405180910390fd5b6004600083815260200190815260200160002060009054906101000a900473ffffffffffffffffffffffffffffffffffffffff169050919050565b6000610f90826115df565b90508073ffffffffffffffffffffffffffffffffffffffff168373ffffffffffffffffffffffffffffffffffffffff161415611017576040517f08c379a00000000000000000000000000000000000000000000000000000000081526004018080602001828103825260218152602001806144de6021913960400191505060405180910390fd5b8073ffffffffffffffffffffffffffffffffffffffff1661103661249b565b73ffffffffffffffffffffffffffffffffffffffff16148061106557506110648161105f61249b565b611f91565b5b6110ba576040517f08c379a00000000000000000000000000000000000000000000000000000000081526004018080602001828103825260388152602001806143886038913960400191505060405180910390fd5b6110c483836124a3565b505050565b60006110d5600261255c565b905090565b6110eb6110e561249b565b82612571565b611140576040517f08c379a00000000000000000000000000000000000000000000000000000000081526004018080602001828103825260318152602001806144ff6031913960400191505060405180910390fd5b61114b838383612665565b505050565b600061115a614230565b60405180606001604052804281526020016001151581526020016000815250905080600f60003373ffffffffffffffffffffffffffffffffffffffff1673ffffffffffffffffffffffffffffffffffffffff1681526020019081526020016000206000820151816000015560208201518160010160006101000a81548160ff021916908315150217905550604082015181600201559050507fdfe432e0998d86cccb46a6c0ebdde2cdb9672dd3c69aabc1347412b7f2de7ee533600f60003373ffffffffffffffffffffffffffffffffffffffff1673ffffffffffffffffffffffffffffffffffffffff16815260200190815260200160002060000154600f60003373ffffffffffffffffffffffffffffffffffffffff1673ffffffffffffffffffffffffffffffffffffffff16815260200190815260200160002060020154604051808473ffffffffffffffffffffffffffffffffffffffff1673ffffffffffffffffffffffffffffffffffffffff168152602001838152602001828152602001935050505060405180910390a1600191505090565b600061134482600160008673ffffffffffffffffffffffffffffffffffffffff1673ffffffffffffffffffffffffffffffffffffffff1681526020019081526020016000206128a890919063ffffffff16565b905092915050565b61136783838360405180602001604052806000815250611b3c565b505050565b60006113773361178d565b156113a757600061138b86868686336128c2565b9050801561139d5760019150506113ac565b60009150506113ac565b600090505b949350505050565b6000806113cb836002612a1e90919063ffffffff16565b50905080915050919050565b60006113e23361178d565b611454576040517f08c379a00000000000000000000000000000000000000000000000000000000081526004018080602001828103825260108152602001807f4e6f7420612076616c696420757365720000000000000000000000000000000081525060200191505060405180910390fd5b60003390506000611464826116b8565b146114d7576040517f08c379a000000000000000000000000000000000000000000000000000000000815260040180806020018281038252601b8152602001807f537562736372697074696f6e20616c726561647920657869737473000000000081525060200191505060405180910390fd5b60006114e38285612a4d565b905080156115d45761012c4201600f60003373ffffffffffffffffffffffffffffffffffffffff1673ffffffffffffffffffffffffffffffffffffffff168152602001908152602001600020600201819055506000670de0b6b3a76400009050600061154f8285612a73565b9050600081146115c7576040517f08c379a00000000000000000000000000000000000000000000000000000000081526004018080602001828103825260198152602001807f63616e6e6f74207265636569766520796f75722066756e64730000000000000081525060200191505060405180910390fd5b60019450505050506115da565b80925050505b919050565b600061160f826040518060600160405280602981526020016143ea602991396002612c7e9092919063ffffffff16565b9050919050565b606060098054600181600116156101000203166002900480601f0160208091040260200160405190810160405280929190818152602001828054600181600116156101000203166002900480156116ae5780601f10611683576101008083540402835291602001916116ae565b820191906000526020600020905b81548152906001019060200180831161169157829003601f168201915b5050505050905090565b60008073ffffffffffffffffffffffffffffffffffffffff168273ffffffffffffffffffffffffffffffffffffffff16141561173f576040517f08c379a000000000000000000000000000000000000000000000000000000000815260040180806020018281038252602a8152602001806143c0602a913960400191505060405180910390fd5b611786600160008473ffffffffffffffffffffffffffffffffffffffff1673ffffffffffffffffffffffffffffffffffffffff168152602001908152602001600020612c9d565b9050919050565b6000600f60008373ffffffffffffffffffffffffffffffffffffffff1673ffffffffffffffffffffffffffffffffffffffff16815260200190815260200160002060010160009054906101000a900460ff16156117ed57600190506117f2565b600090505b919050565b600e60009054906101000a900473ffffffffffffffffffffffffffffffffffffffff1681565b606060078054600181600116156101000203166002900480601f0160208091040260200160405190810160405280929190818152602001828054600181600116156101000203166002900480156118b55780601f1061188a576101008083540402835291602001916118b5565b820191906000526020600020905b81548152906001019060200180831161189857829003601f168201915b5050505050905090565b6118c761249b565b73ffffffffffffffffffffffffffffffffffffffff168273ffffffffffffffffffffffffffffffffffffffff161415611968576040517f08c379a00000000000000000000000000000000000000000000000000000000081526004018080602001828103825260198152602001807f4552433732313a20617070726f766520746f2063616c6c65720000000000000081525060200191505060405180910390fd5b806005600061197561249b565b73ffffffffffffffffffffffffffffffffffffffff1673ffffffffffffffffffffffffffffffffffffffff16815260200190815260200160002060008473ffffffffffffffffffffffffffffffffffffffff1673ffffffffffffffffffffffffffffffffffffffff16815260200190815260200160002060006101000a81548160ff0219169083151502179055508173ffffffffffffffffffffffffffffffffffffffff16611a2261249b565b73ffffffffffffffffffffffffffffffffffffffff167f17307eab39ab6107e8899845ad3d59bd9653f200f220920489ca2b5937696c3183604051808215151515815260200191505060405180910390a35050565b6000611a823361178d565b611af4576040517f08c379a00000000000000000000000000000000000000000000000000000000081526004018080602001828103825260108152602001807f4e6f7420612076616c696420757365720000000000000000000000000000000081525060200191505060405180910390fd5b600f60003373ffffffffffffffffffffffffffffffffffffffff1673ffffffffffffffffffffffffffffffffffffffff16815260200190815260200160002060000154905090565b611b4d611b4761249b565b83612571565b611ba2576040517f08c379a00000000000000000000000000000000000000000000000000000000081526004018080602001828103825260318152602001806144ff6031913960400191505060405180910390fd5b611bae84848484612cb2565b50505050565b6060611bbf8261247e565b611c14576040517f08c379a000000000000000000000000000000000000000000000000000000000815260040180806020018281038252602f8152602001806144af602f913960400191505060405180910390fd5b6060600860008481526020019081526020016000208054600181600116156101000203166002900480601f016020809104026020016040519081016040528092919081815260200182805460018160011615610100020316600290048015611cbd5780601f10611c9257610100808354040283529160200191611cbd565b820191906000526020600020905b815481529060010190602001808311611ca057829003601f168201915b50505050509050600060098054600181600116156101000203166002900490501415611cec5780915050611e98565b600081511115611dc5576009816040516020018083805460018160011615610100020316600290048015611d575780601f10611d35576101008083540402835291820191611d57565b820191906000526020600020905b815481529060010190602001808311611d43575b505082805190602001908083835b60208310611d885780518252602082019150602081019050602083039250611d65565b6001836020036101000a03801982511681845116808217855250505050505090500192505050604051602081830303815290604052915050611e98565b6009611dd084612d24565b6040516020018083805460018160011615610100020316600290048015611e2e5780601f10611e0c576101008083540402835291820191611e2e565b820191906000526020600020905b815481529060010190602001808311611e1a575b505082805190602001908083835b60208310611e5f5780518252602082019150602081019050602083039250611e3c565b6001836020036101000a038019825116818451168082178552505050505050905001925050506040516020818303038152906040529150505b919050565b6000611ea83361178d565b611f1a576040517f08c379a00000000000000000000000000000000000000000000000000000000081526004018080602001828103825260108152602001807f4e6f7420612076616c696420757365720000000000000000000000000000000081525060200191505060405180910390fd5b600f60003373ffffffffffffffffffffffffffffffffffffffff1673ffffffffffffffffffffffffffffffffffffffff16815260200190815260200160002060020154905090565b600080678ac7230489e80000611f766110c9565b0290506000611f858483612e6b565b90508092505050919050565b6000600560008473ffffffffffffffffffffffffffffffffffffffff1673ffffffffffffffffffffffffffffffffffffffff16815260200190815260200160002060008373ffffffffffffffffffffffffffffffffffffffff1673ffffffffffffffffffffffffffffffffffffffff16815260200190815260200160002060009054906101000a900460ff16905092915050565b600061203861203261249b565b83612571565b61208d576040517f08c379a00000000000000000000000000000000000000000000000000000000081526004018080602001828103825260308152602001806145306030913960400191505060405180910390fd5b612096826131b4565b60019050919050565b600080670de0b6b3a7640000905060003390506000600b60009054906101000a900473ffffffffffffffffffffffffffffffffffffffff1673ffffffffffffffffffffffffffffffffffffffff1663852a12e3846040518263ffffffff1660e01b815260040180828152602001915050602060405180830381600087803b15801561212957600080fd5b505af115801561213d573d6000803e3d6000fd5b505050506040513d602081101561215357600080fd5b81019080805190602001909291905050509050600081146121bf576040517f08c379a000000000000000000000000000000000000000000000000000000000815260040180806020018281038252602581526020018061448a6025913960400191505060405180910390fd5b600a60009054906101000a900473ffffffffffffffffffffffffffffffffffffffff1673ffffffffffffffffffffffffffffffffffffffff1663a9059cbb83856040518363ffffffff1660e01b8152600401808373ffffffffffffffffffffffffffffffffffffffff1673ffffffffffffffffffffffffffffffffffffffff16815260200182815260200192505050602060405180830381600087803b15801561226857600080fd5b505af115801561227c573d6000803e3d6000fd5b505050506040513d602081101561229257600080fd5b81019080805190602001909291905050505060c8935050505090565b6000600e60009054906101000a900473ffffffffffffffffffffffffffffffffffffffff1673ffffffffffffffffffffffffffffffffffffffff163373ffffffffffffffffffffffffffffffffffffffff1614612356576040517f08c379a00000000000000000000000000000000000000000000000000000000081526004018080602001828103825260238152602001806143156023913960400191505060405180910390fd5b6000600b60009054906101000a900473ffffffffffffffffffffffffffffffffffffffff1673ffffffffffffffffffffffffffffffffffffffff16633af9e669306040518263ffffffff1660e01b8152600401808273ffffffffffffffffffffffffffffffffffffffff1673ffffffffffffffffffffffffffffffffffffffff168152602001915050602060405180830381600087803b1580156123f957600080fd5b505af115801561240d573d6000803e3d6000fd5b505050506040513d602081101561242357600080fd5b81019080805190602001909291905050509050600083820390507f909c57d5c6ac08245cf2a6de3900e2b868513fa59099b92b27d8db823d92df9c816040518082815260200191505060405180910390a18092505050919050565b60006124948260026132ee90919063ffffffff16565b9050919050565b600033905090565b816004600083815260200190815260200160002060006101000a81548173ffffffffffffffffffffffffffffffffffffffff021916908373ffffffffffffffffffffffffffffffffffffffff160217905550808273ffffffffffffffffffffffffffffffffffffffff16612516836115df565b73ffffffffffffffffffffffffffffffffffffffff167f8c5be1e5ebec7d5bd14f71427d1e84f3dd0314c0f7b2291e5b200ac8c7c3b92560405160405180910390a45050565b600061256a82600001613308565b9050919050565b600061257c8261247e565b6125d1576040517f08c379a000000000000000000000000000000000000000000000000000000000815260040180806020018281038252602c81526020018061435c602c913960400191505060405180910390fd5b60006125dc836115df565b90508073ffffffffffffffffffffffffffffffffffffffff168473ffffffffffffffffffffffffffffffffffffffff16148061264b57508373ffffffffffffffffffffffffffffffffffffffff1661263384610eea565b73ffffffffffffffffffffffffffffffffffffffff16145b8061265c575061265b8185611f91565b5b91505092915050565b8273ffffffffffffffffffffffffffffffffffffffff16612685826115df565b73ffffffffffffffffffffffffffffffffffffffff16146126f1576040517f08c379a00000000000000000000000000000000000000000000000000000000081526004018080602001828103825260298152602001806144616029913960400191505060405180910390fd5b600073ffffffffffffffffffffffffffffffffffffffff168273ffffffffffffffffffffffffffffffffffffffff161415612777576040517f08c379a00000000000000000000000000000000000000000000000000000000081526004018080602001828103825260248152602001806143386024913960400191505060405180910390fd5b612782838383613319565b61278d6000826124a3565b6127de81600160008673ffffffffffffffffffffffffffffffffffffffff1673ffffffffffffffffffffffffffffffffffffffff16815260200190815260200160002061331e90919063ffffffff16565b5061283081600160008573ffffffffffffffffffffffffffffffffffffffff1673ffffffffffffffffffffffffffffffffffffffff16815260200190815260200160002061333890919063ffffffff16565b50612847818360026133529092919063ffffffff16565b50808273ffffffffffffffffffffffffffffffffffffffff168473ffffffffffffffffffffffffffffffffffffffff167fddf252ad1be2c89b69c2b068fc378daa952ba7f163c4a11628f55a4df523b3ef60405160405180910390a4505050565b60006128b78360000183613387565b60001c905092915050565b600060606040518060400160405280601c81526020017f19457468657265756d205369676e6564204d6573736167653a0a3332000000008152509050600081886040516020018083805190602001908083835b602083106129385780518252602082019150602081019050602083039250612915565b6001836020036101000a038019825116818451168082178552505050505050905001828152602001925050506040516020818303038152906040528051906020012090508373ffffffffffffffffffffffffffffffffffffffff1660018289898960405160008152602001604052604051808581526020018460ff1660ff1681526020018381526020018281526020019450505050506020604051602081039080840390855afa1580156129f0573d6000803e3d6000fd5b5050506020604051035173ffffffffffffffffffffffffffffffffffffffff16149250505095945050505050565b600080600080612a31866000018661340a565b915091508160001c8160001c8090509350935050509250929050565b6000612a698383604051806020016040528060008152506134a3565b6001905092915050565b6000600a60009054906101000a900473ffffffffffffffffffffffffffffffffffffffff1673ffffffffffffffffffffffffffffffffffffffff166323b872dd8330866040518463ffffffff1660e01b8152600401808473ffffffffffffffffffffffffffffffffffffffff1673ffffffffffffffffffffffffffffffffffffffff1681526020018373ffffffffffffffffffffffffffffffffffffffff1673ffffffffffffffffffffffffffffffffffffffff1681526020018281526020019350505050602060405180830381600087803b158015612b5257600080fd5b505af1158015612b66573d6000803e3d6000fd5b505050506040513d6020811015612b7c57600080fd5b8101908080519060200190929190505050506000612c72600a60009054906101000a900473ffffffffffffffffffffffffffffffffffffffff1673ffffffffffffffffffffffffffffffffffffffff166370a08231306040518263ffffffff1660e01b8152600401808273ffffffffffffffffffffffffffffffffffffffff1673ffffffffffffffffffffffffffffffffffffffff16815260200191505060206040518083038186803b158015612c3257600080fd5b505afa158015612c46573d6000803e3d6000fd5b505050506040513d6020811015612c5c57600080fd5b8101908080519060200190929190505050613514565b90508091505092915050565b6000612c91846000018460001b846136da565b60001c90509392505050565b6000612cab826000016137d0565b9050919050565b612cbd848484612665565b612cc9848484846137e1565b612d1e576040517f08c379a00000000000000000000000000000000000000000000000000000000081526004018080602001828103825260328152602001806142e36032913960400191505060405180910390fd5b50505050565b60606000821415612d6c576040518060400160405280600181526020017f30000000000000000000000000000000000000000000000000000000000000008152509050612e66565b600082905060005b60008214612d96578080600101915050600a8281612d8e57fe5b049150612d74565b60608167ffffffffffffffff81118015612daf57600080fd5b506040519080825280601f01601f191660200182016040528015612de25781602001600182028036833780820191505090505b50905060006001830390508593505b60008414612e5e57600a8481612e0357fe5b0660300160f81b82828060019003935081518110612e1d57fe5b60200101907effffffffffffffffffffffffffffffffffffffffffffffffffffffffffffff1916908160001a905350600a8481612e5657fe5b049350612df1565b819450505050505b919050565b6000600e60009054906101000a900473ffffffffffffffffffffffffffffffffffffffff1673ffffffffffffffffffffffffffffffffffffffff163373ffffffffffffffffffffffffffffffffffffffff1614612f13576040517f08c379a00000000000000000000000000000000000000000000000000000000081526004018080602001828103825260238152602001806143156023913960400191505060405180910390fd5b60003390506000612f23846122ae565b90507f909c57d5c6ac08245cf2a6de3900e2b868513fa59099b92b27d8db823d92df9c816040518082815260200191505060405180910390a184811015612fb5576040517f08c379a00000000000000000000000000000000000000000000000000000000081526004018080602001828103825260248152602001806145606024913960400191505060405180910390fd5b6000600b60009054906101000a900473ffffffffffffffffffffffffffffffffffffffff1673ffffffffffffffffffffffffffffffffffffffff1663852a12e3876040518263ffffffff1660e01b815260040180828152602001915050602060405180830381600087803b15801561302c57600080fd5b505af1158015613040573d6000803e3d6000fd5b505050506040513d602081101561305657600080fd5b81019080805190602001909291905050509050600081146130c2576040517f08c379a000000000000000000000000000000000000000000000000000000000815260040180806020018281038252602581526020018061448a6025913960400191505060405180910390fd5b600a60009054906101000a900473ffffffffffffffffffffffffffffffffffffffff1673ffffffffffffffffffffffffffffffffffffffff1663a9059cbb84886040518363ffffffff1660e01b8152600401808373ffffffffffffffffffffffffffffffffffffffff1673ffffffffffffffffffffffffffffffffffffffff16815260200182815260200192505050602060405180830381600087803b15801561316b57600080fd5b505af115801561317f573d6000803e3d6000fd5b505050506040513d602081101561319557600080fd5b8101908080519060200190929190505050506001935050505092915050565b60006131bf826115df565b90506131cd81600084613319565b6131d86000836124a3565b60006008600084815260200190815260200160002080546001816001161561010002031660029004905014613227576008600083815260200190815260200160002060006132269190614253565b5b61327882600160008473ffffffffffffffffffffffffffffffffffffffff1673ffffffffffffffffffffffffffffffffffffffff16815260200190815260200160002061331e90919063ffffffff16565b5061328d826002613a2690919063ffffffff16565b5081600073ffffffffffffffffffffffffffffffffffffffff168273ffffffffffffffffffffffffffffffffffffffff167fddf252ad1be2c89b69c2b068fc378daa952ba7f163c4a11628f55a4df523b3ef60405160405180910390a45050565b6000613300836000018360001b613a40565b905092915050565b600081600001805490509050919050565b505050565b6000613330836000018360001b613a63565b905092915050565b600061334a836000018360001b613b4b565b905092915050565b600061337e846000018460001b8473ffffffffffffffffffffffffffffffffffffffff1660001b613bbb565b90509392505050565b6000818360000180549050116133e8576040517f08c379a00000000000000000000000000000000000000000000000000000000081526004018080602001828103825260228152602001806142c16022913960400191505060405180910390fd5b8260000182815481106133f757fe5b9060005260206000200154905092915050565b6000808284600001805490501161346c576040517f08c379a00000000000000000000000000000000000000000000000000000000081526004018080602001828103825260228152602001806144136022913960400191505060405180910390fd5b600084600001848154811061347d57fe5b906000526020600020906002020190508060000154816001015492509250509250929050565b6134ad8383613c97565b6134ba60008484846137e1565b61350f576040517f08c379a00000000000000000000000000000000000000000000000000000000081526004018080602001828103825260328152602001806142e36032913960400191505060405180910390fd5b505050565b6000600a60009054906101000a900473ffffffffffffffffffffffffffffffffffffffff1673ffffffffffffffffffffffffffffffffffffffff1663095ea7b3600d60009054906101000a900473ffffffffffffffffffffffffffffffffffffffff16846040518363ffffffff1660e01b8152600401808373ffffffffffffffffffffffffffffffffffffffff1673ffffffffffffffffffffffffffffffffffffffff16815260200182815260200192505050602060405180830381600087803b1580156135e157600080fd5b505af11580156135f5573d6000803e3d6000fd5b505050506040513d602081101561360b57600080fd5b8101908080519060200190929190505050506000600b60009054906101000a900473ffffffffffffffffffffffffffffffffffffffff1673ffffffffffffffffffffffffffffffffffffffff1663a0712d68846040518263ffffffff1660e01b815260040180828152602001915050602060405180830381600087803b15801561369457600080fd5b505af11580156136a8573d6000803e3d6000fd5b505050506040513d60208110156136be57600080fd5b8101908080519060200190929190505050905080915050919050565b600080846001016000858152602001908152602001600020549050600081141583906137a1576040517f08c379a00000000000000000000000000000000000000000000000000000000081526004018080602001828103825283818151815260200191508051906020019080838360005b8381101561376657808201518184015260208101905061374b565b50505050905090810190601f1680156137935780820380516001836020036101000a031916815260200191505b509250505060405180910390fd5b508460000160018203815481106137b457fe5b9060005260206000209060020201600101549150509392505050565b600081600001805490509050919050565b60006138028473ffffffffffffffffffffffffffffffffffffffff16613e8b565b61380f5760019050613a1e565b60606139a563150b7a0260e01b61382461249b565b888787604051602401808573ffffffffffffffffffffffffffffffffffffffff1673ffffffffffffffffffffffffffffffffffffffff1681526020018473ffffffffffffffffffffffffffffffffffffffff1673ffffffffffffffffffffffffffffffffffffffff16815260200183815260200180602001828103825283818151815260200191508051906020019080838360005b838110156138d45780820151818401526020810190506138b9565b50505050905090810190601f1680156139015780820380516001836020036101000a031916815260200191505b5095505050505050604051602081830303815290604052907bffffffffffffffffffffffffffffffffffffffffffffffffffffffff19166020820180517bffffffffffffffffffffffffffffffffffffffffffffffffffffffff83818316178352505050506040518060600160405280603281526020016142e3603291398773ffffffffffffffffffffffffffffffffffffffff16613ed69092919063ffffffff16565b905060008180602001905160208110156139be57600080fd5b8101908080519060200190929190505050905063150b7a0260e01b7bffffffffffffffffffffffffffffffffffffffffffffffffffffffff1916817bffffffffffffffffffffffffffffffffffffffffffffffffffffffff191614925050505b949350505050565b6000613a38836000018360001b613eee565b905092915050565b600080836001016000848152602001908152602001600020541415905092915050565b60008083600101600084815260200190815260200160002054905060008114613b3f5760006001820390506000600186600001805490500390506000866000018281548110613aae57fe5b9060005260206000200154905080876000018481548110613acb57fe5b9060005260206000200181905550600183018760010160008381526020019081526020016000208190555086600001805480613b0357fe5b60019003818190600052602060002001600090559055866001016000878152602001908152602001600020600090556001945050505050613b45565b60009150505b92915050565b6000613b578383614007565b613bb0578260000182908060018154018082558091505060019003906000526020600020016000909190919091505582600001805490508360010160008481526020019081526020016000208190555060019050613bb5565b600090505b92915050565b6000808460010160008581526020019081526020016000205490506000811415613c6257846000016040518060400160405280868152602001858152509080600181540180825580915050600190039060005260206000209060020201600090919091909150600082015181600001556020820151816001015550508460000180549050856001016000868152602001908152602001600020819055506001915050613c90565b82856000016001830381548110613c7557fe5b90600052602060002090600202016001018190555060009150505b9392505050565b600073ffffffffffffffffffffffffffffffffffffffff168273ffffffffffffffffffffffffffffffffffffffff161415613d3a576040517f08c379a00000000000000000000000000000000000000000000000000000000081526004018080602001828103825260208152602001807f4552433732313a206d696e7420746f20746865207a65726f206164647265737381525060200191505060405180910390fd5b613d438161247e565b15613db6576040517f08c379a000000000000000000000000000000000000000000000000000000000815260040180806020018281038252601c8152602001807f4552433732313a20746f6b656e20616c7265616479206d696e7465640000000081525060200191505060405180910390fd5b613dc260008383613319565b613e1381600160008573ffffffffffffffffffffffffffffffffffffffff1673ffffffffffffffffffffffffffffffffffffffff16815260200190815260200160002061333890919063ffffffff16565b50613e2a818360026133529092919063ffffffff16565b50808273ffffffffffffffffffffffffffffffffffffffff16600073ffffffffffffffffffffffffffffffffffffffff167fddf252ad1be2c89b69c2b068fc378daa952ba7f163c4a11628f55a4df523b3ef60405160405180910390a45050565b60008060007fc5d2460186f7233c927e7db2dcc703c0e500b653ca82273b7bfad8045d85a47060001b9050833f9150808214158015613ecd57506000801b8214155b92505050919050565b6060613ee5848460008561402a565b90509392505050565b60008083600101600084815260200190815260200160002054905060008114613ffb5760006001820390506000600186600001805490500390506000866000018281548110613f3957fe5b9060005260206000209060020201905080876000018481548110613f5957fe5b9060005260206000209060020201600082015481600001556001820154816001015590505060018301876001016000836000015481526020019081526020016000208190555086600001805480613fac57fe5b6001900381819060005260206000209060020201600080820160009055600182016000905550509055866001016000878152602001908152602001600020600090556001945050505050614001565b60009150505b92915050565b600080836001016000848152602001908152602001600020541415905092915050565b606061403585613e8b565b6140a7576040517f08c379a000000000000000000000000000000000000000000000000000000000815260040180806020018281038252601d8152602001807f416464726573733a2063616c6c20746f206e6f6e2d636f6e747261637400000081525060200191505060405180910390fd5b600060608673ffffffffffffffffffffffffffffffffffffffff1685876040518082805190602001908083835b602083106140f757805182526020820191506020810190506020830392506140d4565b6001836020036101000a03801982511681845116808217855250505050505090500191505060006040518083038185875af1925050503d8060008114614159576040519150601f19603f3d011682016040523d82523d6000602084013e61415e565b606091505b50915091508115614173578092505050614228565b6000815111156141865780518082602001fd5b836040517f08c379a00000000000000000000000000000000000000000000000000000000081526004018080602001828103825283818151815260200191508051906020019080838360005b838110156141ed5780820151818401526020810190506141d2565b50505050905090810190601f16801561421a5780820380516001836020036101000a031916815260200191505b509250505060405180910390fd5b949350505050565b604051806060016040528060008152602001600015158152602001600081525090565b50805460018160011615610100020316600290046000825580601f106142795750614298565b601f016020900490600052602060002090810190614297919061429b565b5b50565b6142bd91905b808211156142b95760008160009055506001016142a1565b5090565b9056fe456e756d657261626c655365743a20696e646578206f7574206f6620626f756e64734552433732313a207472616e7366657220746f206e6f6e20455243373231526563656976657220696d706c656d656e7465724f6e6c7920617574686f72697a656420666f72206f776e657220746f206163636573734552433732313a207472616e7366657220746f20746865207a65726f20616464726573734552433732313a206f70657261746f7220717565727920666f72206e6f6e6578697374656e7420746f6b656e4552433732313a20617070726f76652063616c6c6572206973206e6f74206f776e6572206e6f7220617070726f76656420666f7220616c6c4552433732313a2062616c616e636520717565727920666f7220746865207a65726f20616464726573734552433732313a206f776e657220717565727920666f72206e6f6e6578697374656e7420746f6b656e456e756d657261626c654d61703a20696e646578206f7574206f6620626f756e64734552433732313a20617070726f76656420717565727920666f72206e6f6e6578697374656e7420746f6b656e4552433732313a207472616e73666572206f6620746f6b656e2074686174206973206e6f74206f776e736f6d652070726f626c656d207768696c652072656465656d20796f757220746f6b656e734552433732314d657461646174613a2055524920717565727920666f72206e6f6e6578697374656e7420746f6b656e4552433732313a20617070726f76616c20746f2063757272656e74206f776e65724552433732313a207472616e736665722063616c6c6572206973206e6f74206f776e6572206e6f7220617070726f7665644552433732314275726e61626c653a2063616c6c6572206973206e6f74206f776e6572206e6f7220617070726f76656463616e6e6f74207769746864726177206d6f7265207468616e20796f7572207368617265a26469706673582212207cc0e970852c551456950496cdaf837feb2920e395427a1d28580cf6ad8db26c64736f6c63430006060033",
  "immutableReferences": {},
  "source": "// SPDX-License-Identifier: MIT\npragma solidity >=0.4.21 <0.7.0;\n\nimport \"./Token.sol\";\nimport \"./Finance.sol\";\n\ncontract Master is Token,Finance {\n\n    struct Wallet{\n        uint rand;\n        bool valid;\n        uint redeemTime;\n    }\n\n    modifier validUser() {\n        require(checkValidUser(msg.sender), \"Not a valid user\");\n        _;\n    }\n\n    mapping(address => Wallet) private users;\n\n    event newUser(address publicKey, uint rand, uint redeemTime);\n\n    function authenticate(bytes32 hash, uint8 v, bytes32 r, bytes32 s) public view returns(bool) {\n\n       if(checkValidUser(msg.sender)){\n           bool verified = _verify(hash,v,r,s, msg.sender);\n           if(verified){\n               return true;\n           }\n           else{\n               return false;\n           }\n       }\n        return false;\n    }\n\n    function createUser() public returns(bool) {\n       Wallet memory temp = Wallet({\n               rand: now,\n               valid: true,\n               redeemTime: 0\n           });\n        users[msg.sender] = temp;\n        emit newUser(msg.sender, users[msg.sender].rand, users[msg.sender].redeemTime);\n        return true;\n    }\n\n    function _verify(bytes32 hash, uint8 v, bytes32 r, bytes32 s, address sender) private pure returns(bool) {\n        bytes memory prefix = \"\\x19Ethereum Signed Message:\\n32\";\n        bytes32 prefixedHash = keccak256(abi.encodePacked(prefix, hash));\n        return ecrecover(prefixedHash, v, r, s) == sender;\n    }\n\n    function addSubscription(uint tokenId) public validUser returns(bool) {\n        address userAddress = msg.sender;\n        require(balanceOf(userAddress) == 0, \"Subscription already exists\");\n        bool result = mint(userAddress, tokenId);\n        if(result){\n            users[msg.sender].redeemTime = now + 300 seconds;\n            uint subscriptionAmount = 10**18;\n            uint code = receiveFunds(subscriptionAmount, userAddress);\n            require(code == 0, \"cannot receive your funds\");\n            return true;\n        }\n\n        return result;\n    }\n\n    function checkValidUser(address publicKey) public view returns(bool) {\n        if(users[publicKey].valid)\n            return true;\n        else\n            return false;\n    }\n\n    function getRandom() public view validUser returns(uint) {\n        return users[msg.sender].rand;\n    }\n\n    function getRedeemTime() public view validUser returns(uint) {\n        return users[msg.sender].redeemTime;\n    }\n\n    function redeemSubscription() public validUser returns(bool) {\n        address userAddress = msg.sender;\n        require(balanceOf(userAddress) > 0, \"subscription doesnot exist\");\n        require(now > users[msg.sender].redeemTime, \"Redeem time not reached\");\n        uint tokenID = tokenOfOwnerByIndex(userAddress, balanceOf(userAddress)-1);\n        bool result = burn(tokenID);\n        if(result){\n             transferToUser();\n            users[userAddress].redeemTime = 0;\n            return true;\n        }\n        return result;\n    }\n\n    function transferOwnerFunds(uint _tokens) public returns(bool){\n        uint totalDeposit = totalSupply() * (10**19);\n        bool result = transferToOwner(_tokens, totalDeposit);\n        return result;\n    }\n\n    function getOwnerShare() public returns(uint){\n        uint totalDeposit = totalSupply() * (10**19);\n        uint result = getProfit(totalDeposit);\n        return result;\n    }\n\n}\n\n",
  "sourcePath": "/Users/raahulvignesh/Desktop/EthereumIndiaFellowship/ETH_project/contracts/Master.sol",
  "compiler": {
    "name": "solc",
    "version": "0.6.6+commit.6c089d02.Emscripten.clang"
  },
  "schemaVersion": "3.2.0",
  "updatedAt": "2020-07-04T09:42:41.013Z",
  "networkType": "ethereum",
  "devdoc": {
    "methods": {
      "approve(address,uint256)": {
        "details": "See {IERC721-approve}."
      },
      "balanceOf(address)": {
        "details": "See {IERC721-balanceOf}."
      },
      "baseURI()": {
        "details": "Returns the base URI set via {_setBaseURI}. This will be automatically added as a prefix in {tokenURI} to each token's URI, or to the token ID if no specific URI is set for that token ID."
      },
      "getApproved(uint256)": {
        "details": "See {IERC721-getApproved}."
      },
      "isApprovedForAll(address,address)": {
        "details": "See {IERC721-isApprovedForAll}."
      },
      "name()": {
        "details": "See {IERC721Metadata-name}."
      },
      "ownerOf(uint256)": {
        "details": "See {IERC721-ownerOf}."
      },
      "safeTransferFrom(address,address,uint256)": {
        "details": "See {IERC721-safeTransferFrom}."
      },
      "safeTransferFrom(address,address,uint256,bytes)": {
        "details": "See {IERC721-safeTransferFrom}."
      },
      "setApprovalForAll(address,bool)": {
        "details": "See {IERC721-setApprovalForAll}."
      },
      "supportsInterface(bytes4)": {
        "details": "See {IERC165-supportsInterface}.     * Time complexity O(1), guaranteed to always use less than 30 000 gas."
      },
      "symbol()": {
        "details": "See {IERC721Metadata-symbol}."
      },
      "tokenByIndex(uint256)": {
        "details": "See {IERC721Enumerable-tokenByIndex}."
      },
      "tokenOfOwnerByIndex(address,uint256)": {
        "details": "See {IERC721Enumerable-tokenOfOwnerByIndex}."
      },
      "tokenURI(uint256)": {
        "details": "See {IERC721Metadata-tokenURI}."
      },
      "totalSupply()": {
        "details": "See {IERC721Enumerable-totalSupply}."
      },
      "transferFrom(address,address,uint256)": {
        "details": "See {IERC721-transferFrom}."
      }
    }
  },
  "userdoc": {
    "methods": {}
  }
}